{"abi":[{"type":"constructor","inputs":[{"name":"initial_Owner","type":"address","internalType":"address"}],"stateMutability":"nonpayable"},{"type":"function","name":"allowance","inputs":[{"name":"owner","type":"address","internalType":"address"},{"name":"spender","type":"address","internalType":"address"}],"outputs":[{"name":"","type":"uint256","internalType":"uint256"}],"stateMutability":"view"},{"type":"function","name":"approve","inputs":[{"name":"spender","type":"address","internalType":"address"},{"name":"value","type":"uint256","internalType":"uint256"}],"outputs":[{"name":"","type":"bool","internalType":"bool"}],"stateMutability":"nonpayable"},{"type":"function","name":"balanceOf","inputs":[{"name":"account","type":"address","internalType":"address"}],"outputs":[{"name":"","type":"uint256","internalType":"uint256"}],"stateMutability":"view"},{"type":"function","name":"burn","inputs":[{"name":"value","type":"uint256","internalType":"uint256"}],"outputs":[],"stateMutability":"nonpayable"},{"type":"function","name":"burn","inputs":[{"name":"from","type":"address","internalType":"address"},{"name":"amount","type":"uint256","internalType":"uint256"}],"outputs":[],"stateMutability":"nonpayable"},{"type":"function","name":"burnFrom","inputs":[{"name":"account","type":"address","internalType":"address"},{"name":"value","type":"uint256","internalType":"uint256"}],"outputs":[],"stateMutability":"nonpayable"},{"type":"function","name":"decimals","inputs":[],"outputs":[{"name":"","type":"uint8","internalType":"uint8"}],"stateMutability":"view"},{"type":"function","name":"mint","inputs":[{"name":"to","type":"address","internalType":"address"},{"name":"amount","type":"uint256","internalType":"uint256"}],"outputs":[],"stateMutability":"nonpayable"},{"type":"function","name":"name","inputs":[],"outputs":[{"name":"","type":"string","internalType":"string"}],"stateMutability":"view"},{"type":"function","name":"owner","inputs":[],"outputs":[{"name":"","type":"address","internalType":"address"}],"stateMutability":"view"},{"type":"function","name":"renounceOwnership","inputs":[],"outputs":[],"stateMutability":"nonpayable"},{"type":"function","name":"symbol","inputs":[],"outputs":[{"name":"","type":"string","internalType":"string"}],"stateMutability":"view"},{"type":"function","name":"totalSupply","inputs":[],"outputs":[{"name":"","type":"uint256","internalType":"uint256"}],"stateMutability":"view"},{"type":"function","name":"transfer","inputs":[{"name":"to","type":"address","internalType":"address"},{"name":"value","type":"uint256","internalType":"uint256"}],"outputs":[{"name":"","type":"bool","internalType":"bool"}],"stateMutability":"nonpayable"},{"type":"function","name":"transferFrom","inputs":[{"name":"from","type":"address","internalType":"address"},{"name":"to","type":"address","internalType":"address"},{"name":"value","type":"uint256","internalType":"uint256"}],"outputs":[{"name":"","type":"bool","internalType":"bool"}],"stateMutability":"nonpayable"},{"type":"function","name":"transferOwnership","inputs":[{"name":"newOwner","type":"address","internalType":"address"}],"outputs":[],"stateMutability":"nonpayable"},{"type":"event","name":"Approval","inputs":[{"name":"owner","type":"address","indexed":true,"internalType":"address"},{"name":"spender","type":"address","indexed":true,"internalType":"address"},{"name":"value","type":"uint256","indexed":false,"internalType":"uint256"}],"anonymous":false},{"type":"event","name":"OwnershipTransferred","inputs":[{"name":"previousOwner","type":"address","indexed":true,"internalType":"address"},{"name":"newOwner","type":"address","indexed":true,"internalType":"address"}],"anonymous":false},{"type":"event","name":"Transfer","inputs":[{"name":"from","type":"address","indexed":true,"internalType":"address"},{"name":"to","type":"address","indexed":true,"internalType":"address"},{"name":"value","type":"uint256","indexed":false,"internalType":"uint256"}],"anonymous":false},{"type":"error","name":"ERC20InsufficientAllowance","inputs":[{"name":"spender","type":"address","internalType":"address"},{"name":"allowance","type":"uint256","internalType":"uint256"},{"name":"needed","type":"uint256","internalType":"uint256"}]},{"type":"error","name":"ERC20InsufficientBalance","inputs":[{"name":"sender","type":"address","internalType":"address"},{"name":"balance","type":"uint256","internalType":"uint256"},{"name":"needed","type":"uint256","internalType":"uint256"}]},{"type":"error","name":"ERC20InvalidApprover","inputs":[{"name":"approver","type":"address","internalType":"address"}]},{"type":"error","name":"ERC20InvalidReceiver","inputs":[{"name":"receiver","type":"address","internalType":"address"}]},{"type":"error","name":"ERC20InvalidSender","inputs":[{"name":"sender","type":"address","internalType":"address"}]},{"type":"error","name":"ERC20InvalidSpender","inputs":[{"name":"spender","type":"address","internalType":"address"}]},{"type":"error","name":"OwnableInvalidOwner","inputs":[{"name":"owner","type":"address","internalType":"address"}]},{"type":"error","name":"OwnableUnauthorizedAccount","inputs":[{"name":"account","type":"address","internalType":"address"}]}],"bytecode":{"object":"0x608060405234801561000f575f5ffd5b5060405161186838038061186883398181016040528101906100319190610267565b806040518060400160405280600681526020017f57446f6e757400000000000000000000000000000000000000000000000000008152506040518060400160405280600481526020017f57444e540000000000000000000000000000000000000000000000000000000081525081600390816100ad91906104cf565b5080600490816100bd91906104cf565b5050505f73ffffffffffffffffffffffffffffffffffffffff168173ffffffffffffffffffffffffffffffffffffffff1603610130575f6040517f1e4fbdf700000000000000000000000000000000000000000000000000000000815260040161012791906105ad565b60405180910390fd5b61013f8161014660201b60201c565b50506105c6565b5f60055f9054906101000a900473ffffffffffffffffffffffffffffffffffffffff1690508160055f6101000a81548173ffffffffffffffffffffffffffffffffffffffff021916908373ffffffffffffffffffffffffffffffffffffffff1602179055508173ffffffffffffffffffffffffffffffffffffffff168173ffffffffffffffffffffffffffffffffffffffff167f8be0079c531659141344cd1fd0a4f28419497f9722a3daafe3b4186f6b6457e060405160405180910390a35050565b5f5ffd5b5f73ffffffffffffffffffffffffffffffffffffffff82169050919050565b5f6102368261020d565b9050919050565b6102468161022c565b8114610250575f5ffd5b50565b5f815190506102618161023d565b92915050565b5f6020828403121561027c5761027b610209565b5b5f61028984828501610253565b91505092915050565b5f81519050919050565b7f4e487b71000000000000000000000000000000000000000000000000000000005f52604160045260245ffd5b7f4e487b71000000000000000000000000000000000000000000000000000000005f52602260045260245ffd5b5f600282049050600182168061030d57607f821691505b6020821081036103205761031f6102c9565b5b50919050565b5f819050815f5260205f209050919050565b5f6020601f8301049050919050565b5f82821b905092915050565b5f600883026103827fffffffffffffffffffffffffffffffffffffffffffffffffffffffffffffffff82610347565b61038c8683610347565b95508019841693508086168417925050509392505050565b5f819050919050565b5f819050919050565b5f6103d06103cb6103c6846103a4565b6103ad565b6103a4565b9050919050565b5f819050919050565b6103e9836103b6565b6103fd6103f5826103d7565b848454610353565b825550505050565b5f5f905090565b610414610405565b61041f8184846103e0565b505050565b5b81811015610442576104375f8261040c565b600181019050610425565b5050565b601f8211156104875761045881610326565b61046184610338565b81016020851015610470578190505b61048461047c85610338565b830182610424565b50505b505050565b5f82821c905092915050565b5f6104a75f198460080261048c565b1980831691505092915050565b5f6104bf8383610498565b9150826002028217905092915050565b6104d882610292565b67ffffffffffffffff8111156104f1576104f061029c565b5b6104fb82546102f6565b610506828285610446565b5f60209050601f831160018114610537575f8415610525578287015190505b61052f85826104b4565b865550610596565b601f19841661054586610326565b5f5b8281101561056c57848901518255600182019150602085019450602081019050610547565b868310156105895784890151610585601f891682610498565b8355505b6001600288020188555050505b505050505050565b6105a78161022c565b82525050565b5f6020820190506105c05f83018461059e565b92915050565b611295806105d35f395ff3fe608060405234801561000f575f5ffd5b50600436106100fe575f3560e01c8063715018a6116100955780639dc29fac116100645780639dc29fac14610286578063a9059cbb146102a2578063dd62ed3e146102d2578063f2fde38b14610302576100fe565b8063715018a61461022457806379cc67901461022e5780638da5cb5b1461024a57806395d89b4114610268576100fe565b8063313ce567116100d1578063313ce5671461019e57806340c10f19146101bc57806342966c68146101d857806370a08231146101f4576100fe565b806306fdde0314610102578063095ea7b31461012057806318160ddd1461015057806323b872dd1461016e575b5f5ffd5b61010a61031e565b6040516101179190610ee3565b60405180910390f35b61013a60048036038101906101359190610f94565b6103ae565b6040516101479190610fec565b60405180910390f35b6101586103d0565b6040516101659190611014565b60405180910390f35b6101886004803603810190610183919061102d565b6103d9565b6040516101959190610fec565b60405180910390f35b6101a6610407565b6040516101b39190611098565b60405180910390f35b6101d660048036038101906101d19190610f94565b61040f565b005b6101f260048036038101906101ed91906110b1565b610425565b005b61020e600480360381019061020991906110dc565b610439565b60405161021b9190611014565b60405180910390f35b61022c61047e565b005b61024860048036038101906102439190610f94565b610491565b005b6102526104b1565b60405161025f9190611116565b60405180910390f35b6102706104d9565b60405161027d9190610ee3565b60405180910390f35b6102a0600480360381019061029b9190610f94565b610569565b005b6102bc60048036038101906102b79190610f94565b61057f565b6040516102c99190610fec565b60405180910390f35b6102ec60048036038101906102e7919061112f565b6105a1565b6040516102f99190611014565b60405180910390f35b61031c600480360381019061031791906110dc565b610623565b005b60606003805461032d9061119a565b80601f01602080910402602001604051908101604052809291908181526020018280546103599061119a565b80156103a45780601f1061037b576101008083540402835291602001916103a4565b820191905f5260205f20905b81548152906001019060200180831161038757829003601f168201915b5050505050905090565b5f5f6103b86106a7565b90506103c58185856106ae565b600191505092915050565b5f600254905090565b5f5f6103e36106a7565b90506103f08582856106c0565b6103fb858585610753565b60019150509392505050565b5f6012905090565b610417610843565b61042182826108ca565b5050565b6104366104306106a7565b82610949565b50565b5f5f5f8373ffffffffffffffffffffffffffffffffffffffff1673ffffffffffffffffffffffffffffffffffffffff1681526020019081526020015f20549050919050565b610486610843565b61048f5f6109c8565b565b6104a38261049d6106a7565b836106c0565b6104ad8282610949565b5050565b5f60055f9054906101000a900473ffffffffffffffffffffffffffffffffffffffff16905090565b6060600480546104e89061119a565b80601f01602080910402602001604051908101604052809291908181526020018280546105149061119a565b801561055f5780601f106105365761010080835404028352916020019161055f565b820191905f5260205f20905b81548152906001019060200180831161054257829003601f168201915b5050505050905090565b610571610843565b61057b8282610491565b5050565b5f5f6105896106a7565b9050610596818585610753565b600191505092915050565b5f60015f8473ffffffffffffffffffffffffffffffffffffffff1673ffffffffffffffffffffffffffffffffffffffff1681526020019081526020015f205f8373ffffffffffffffffffffffffffffffffffffffff1673ffffffffffffffffffffffffffffffffffffffff1681526020019081526020015f2054905092915050565b61062b610843565b5f73ffffffffffffffffffffffffffffffffffffffff168173ffffffffffffffffffffffffffffffffffffffff160361069b575f6040517f1e4fbdf70000000000000000000000000000000000000000000000000000000081526004016106929190611116565b60405180910390fd5b6106a4816109c8565b50565b5f33905090565b6106bb8383836001610a8b565b505050565b5f6106cb84846105a1565b90507fffffffffffffffffffffffffffffffffffffffffffffffffffffffffffffffff81101561074d578181101561073e578281836040517ffb8f41b2000000000000000000000000000000000000000000000000000000008152600401610735939291906111ca565b60405180910390fd5b61074c84848484035f610a8b565b5b50505050565b5f73ffffffffffffffffffffffffffffffffffffffff168373ffffffffffffffffffffffffffffffffffffffff16036107c3575f6040517f96c6fd1e0000000000000000000000000000000000000000000000000000000081526004016107ba9190611116565b60405180910390fd5b5f73ffffffffffffffffffffffffffffffffffffffff168273ffffffffffffffffffffffffffffffffffffffff1603610833575f6040517fec442f0500000000000000000000000000000000000000000000000000000000815260040161082a9190611116565b60405180910390fd5b61083e838383610c5a565b505050565b61084b6106a7565b73ffffffffffffffffffffffffffffffffffffffff166108696104b1565b73ffffffffffffffffffffffffffffffffffffffff16146108c85761088c6106a7565b6040517f118cdaa70000000000000000000000000000000000000000000000000000000081526004016108bf9190611116565b60405180910390fd5b565b5f73ffffffffffffffffffffffffffffffffffffffff168273ffffffffffffffffffffffffffffffffffffffff160361093a575f6040517fec442f050000000000000000000000000000000000000000000000000000000081526004016109319190611116565b60405180910390fd5b6109455f8383610c5a565b5050565b5f73ffffffffffffffffffffffffffffffffffffffff168273ffffffffffffffffffffffffffffffffffffffff16036109b9575f6040517f96c6fd1e0000000000000000000000000000000000000000000000000000000081526004016109b09190611116565b60405180910390fd5b6109c4825f83610c5a565b5050565b5f60055f9054906101000a900473ffffffffffffffffffffffffffffffffffffffff1690508160055f6101000a81548173ffffffffffffffffffffffffffffffffffffffff021916908373ffffffffffffffffffffffffffffffffffffffff1602179055508173ffffffffffffffffffffffffffffffffffffffff168173ffffffffffffffffffffffffffffffffffffffff167f8be0079c531659141344cd1fd0a4f28419497f9722a3daafe3b4186f6b6457e060405160405180910390a35050565b5f73ffffffffffffffffffffffffffffffffffffffff168473ffffffffffffffffffffffffffffffffffffffff1603610afb575f6040517fe602df05000000000000000000000000000000000000000000000000000000008152600401610af29190611116565b60405180910390fd5b5f73ffffffffffffffffffffffffffffffffffffffff168373ffffffffffffffffffffffffffffffffffffffff1603610b6b575f6040517f94280d62000000000000000000000000000000000000000000000000000000008152600401610b629190611116565b60405180910390fd5b8160015f8673ffffffffffffffffffffffffffffffffffffffff1673ffffffffffffffffffffffffffffffffffffffff1681526020019081526020015f205f8573ffffffffffffffffffffffffffffffffffffffff1673ffffffffffffffffffffffffffffffffffffffff1681526020019081526020015f20819055508015610c54578273ffffffffffffffffffffffffffffffffffffffff168473ffffffffffffffffffffffffffffffffffffffff167f8c5be1e5ebec7d5bd14f71427d1e84f3dd0314c0f7b2291e5b200ac8c7c3b92584604051610c4b9190611014565b60405180910390a35b50505050565b5f73ffffffffffffffffffffffffffffffffffffffff168373ffffffffffffffffffffffffffffffffffffffff1603610caa578060025f828254610c9e919061122c565b92505081905550610d78565b5f5f5f8573ffffffffffffffffffffffffffffffffffffffff1673ffffffffffffffffffffffffffffffffffffffff1681526020019081526020015f2054905081811015610d33578381836040517fe450d38c000000000000000000000000000000000000000000000000000000008152600401610d2a939291906111ca565b60405180910390fd5b8181035f5f8673ffffffffffffffffffffffffffffffffffffffff1673ffffffffffffffffffffffffffffffffffffffff1681526020019081526020015f2081905550505b5f73ffffffffffffffffffffffffffffffffffffffff168273ffffffffffffffffffffffffffffffffffffffff1603610dbf578060025f8282540392505081905550610e09565b805f5f8473ffffffffffffffffffffffffffffffffffffffff1673ffffffffffffffffffffffffffffffffffffffff1681526020019081526020015f205f82825401925050819055505b8173ffffffffffffffffffffffffffffffffffffffff168373ffffffffffffffffffffffffffffffffffffffff167fddf252ad1be2c89b69c2b068fc378daa952ba7f163c4a11628f55a4df523b3ef83604051610e669190611014565b60405180910390a3505050565b5f81519050919050565b5f82825260208201905092915050565b8281835e5f83830152505050565b5f601f19601f8301169050919050565b5f610eb582610e73565b610ebf8185610e7d565b9350610ecf818560208601610e8d565b610ed881610e9b565b840191505092915050565b5f6020820190508181035f830152610efb8184610eab565b905092915050565b5f5ffd5b5f73ffffffffffffffffffffffffffffffffffffffff82169050919050565b5f610f3082610f07565b9050919050565b610f4081610f26565b8114610f4a575f5ffd5b50565b5f81359050610f5b81610f37565b92915050565b5f819050919050565b610f7381610f61565b8114610f7d575f5ffd5b50565b5f81359050610f8e81610f6a565b92915050565b5f5f60408385031215610faa57610fa9610f03565b5b5f610fb785828601610f4d565b9250506020610fc885828601610f80565b9150509250929050565b5f8115159050919050565b610fe681610fd2565b82525050565b5f602082019050610fff5f830184610fdd565b92915050565b61100e81610f61565b82525050565b5f6020820190506110275f830184611005565b92915050565b5f5f5f6060848603121561104457611043610f03565b5b5f61105186828701610f4d565b935050602061106286828701610f4d565b925050604061107386828701610f80565b9150509250925092565b5f60ff82169050919050565b6110928161107d565b82525050565b5f6020820190506110ab5f830184611089565b92915050565b5f602082840312156110c6576110c5610f03565b5b5f6110d384828501610f80565b91505092915050565b5f602082840312156110f1576110f0610f03565b5b5f6110fe84828501610f4d565b91505092915050565b61111081610f26565b82525050565b5f6020820190506111295f830184611107565b92915050565b5f5f6040838503121561114557611144610f03565b5b5f61115285828601610f4d565b925050602061116385828601610f4d565b9150509250929050565b7f4e487b71000000000000000000000000000000000000000000000000000000005f52602260045260245ffd5b5f60028204905060018216806111b157607f821691505b6020821081036111c4576111c361116d565b5b50919050565b5f6060820190506111dd5f830186611107565b6111ea6020830185611005565b6111f76040830184611005565b949350505050565b7f4e487b71000000000000000000000000000000000000000000000000000000005f52601160045260245ffd5b5f61123682610f61565b915061124183610f61565b9250828201905080821115611259576112586111ff565b5b9291505056fea2646970667358221220b46b6e75720cd728d7b2edcfb1936ed63c1a787b481e438884ff025172644e7664736f6c634300081c0033","linkReferences":{}},"methodIdentifiers":{"allowance(address,address)":"dd62ed3e","approve(address,uint256)":"095ea7b3","balanceOf(address)":"70a08231","burn(address,uint256)":"9dc29fac","burn(uint256)":"42966c68","burnFrom(address,uint256)":"79cc6790","decimals()":"313ce567","mint(address,uint256)":"40c10f19","name()":"06fdde03","owner()":"8da5cb5b","renounceOwnership()":"715018a6","symbol()":"95d89b41","totalSupply()":"18160ddd","transfer(address,uint256)":"a9059cbb","transferFrom(address,address,uint256)":"23b872dd","transferOwnership(address)":"f2fde38b"},"id":34}