{"abi":[{"type":"constructor","inputs":[{"name":"_WDonut","type":"address","internalType":"address"}],"stateMutability":"nonpayable"},{"type":"function","name":"WDonut","inputs":[],"outputs":[{"name":"","type":"address","internalType":"contract IWDONUT"}],"stateMutability":"view"},{"type":"function","name":"balance","inputs":[{"name":"","type":"address","internalType":"address"}],"outputs":[{"name":"","type":"uint256","internalType":"uint256"}],"stateMutability":"view"},{"type":"function","name":"burned","inputs":[{"name":"amount","type":"uint256","internalType":"uint256"}],"outputs":[],"stateMutability":"nonpayable"},{"type":"function","name":"lockOnOppositeChain","inputs":[{"name":"user","type":"address","internalType":"address"},{"name":"amount","type":"uint256","internalType":"uint256"}],"outputs":[],"stateMutability":"nonpayable"},{"type":"function","name":"owner","inputs":[],"outputs":[{"name":"","type":"address","internalType":"address"}],"stateMutability":"view"},{"type":"function","name":"renounceOwnership","inputs":[],"outputs":[],"stateMutability":"nonpayable"},{"type":"function","name":"transferOwnership","inputs":[{"name":"newOwner","type":"address","internalType":"address"}],"outputs":[],"stateMutability":"nonpayable"},{"type":"function","name":"withdraw","inputs":[{"name":"amount","type":"uint256","internalType":"uint256"}],"outputs":[],"stateMutability":"nonpayable"},{"type":"event","name":"Burned","inputs":[{"name":"addr","type":"address","indexed":true,"internalType":"address"},{"name":"amount","type":"uint256","indexed":true,"internalType":"uint256"}],"anonymous":false},{"type":"event","name":"OwnershipTransferred","inputs":[{"name":"previousOwner","type":"address","indexed":true,"internalType":"address"},{"name":"newOwner","type":"address","indexed":true,"internalType":"address"}],"anonymous":false},{"type":"error","name":"OwnableInvalidOwner","inputs":[{"name":"owner","type":"address","internalType":"address"}]},{"type":"error","name":"OwnableUnauthorizedAccount","inputs":[{"name":"account","type":"address","internalType":"address"}]}],"bytecode":{"object":"0x608060405234801561000f575f5ffd5b50604051610d8f380380610d8f83398181016040528101906100319190610217565b335f73ffffffffffffffffffffffffffffffffffffffff168173ffffffffffffffffffffffffffffffffffffffff16036100a2575f6040517f1e4fbdf70000000000000000000000000000000000000000000000000000000081526004016100999190610251565b60405180910390fd5b6100b1816100f860201b60201c565b508060015f6101000a81548173ffffffffffffffffffffffffffffffffffffffff021916908373ffffffffffffffffffffffffffffffffffffffff1602179055505061026a565b5f5f5f9054906101000a900473ffffffffffffffffffffffffffffffffffffffff169050815f5f6101000a81548173ffffffffffffffffffffffffffffffffffffffff021916908373ffffffffffffffffffffffffffffffffffffffff1602179055508173ffffffffffffffffffffffffffffffffffffffff168173ffffffffffffffffffffffffffffffffffffffff167f8be0079c531659141344cd1fd0a4f28419497f9722a3daafe3b4186f6b6457e060405160405180910390a35050565b5f5ffd5b5f73ffffffffffffffffffffffffffffffffffffffff82169050919050565b5f6101e6826101bd565b9050919050565b6101f6816101dc565b8114610200575f5ffd5b50565b5f81519050610211816101ed565b92915050565b5f6020828403121561022c5761022b6101b9565b5b5f61023984828501610203565b91505092915050565b61024b816101dc565b82525050565b5f6020820190506102645f830184610242565b92915050565b610b18806102775f395ff3fe608060405234801561000f575f5ffd5b5060043610610086575f3560e01c80638da5cb5b116100595780638da5cb5b146100e8578063941d566914610106578063e3d670d714610124578063f2fde38b1461015457610086565b806323250cae1461008a5780632e1a7d4d146100a65780635f95ae68146100c2578063715018a6146100de575b5f5ffd5b6100a4600480360381019061009f9190610757565b610170565b005b6100c060048036038101906100bb9190610757565b61031b565b005b6100dc60048036038101906100d791906107dc565b61047a565b005b6100e66104d9565b005b6100f06104ec565b6040516100fd9190610829565b60405180910390f35b61010e610513565b60405161011b919061089d565b60405180910390f35b61013e600480360381019061013991906108b6565b610538565b60405161014b91906108f0565b60405180910390f35b61016e600480360381019061016991906108b6565b61054d565b005b8060015f9054906101000a900473ffffffffffffffffffffffffffffffffffffffff1673ffffffffffffffffffffffffffffffffffffffff166370a08231336040518263ffffffff1660e01b81526004016101cb9190610829565b602060405180830381865afa1580156101e6573d5f5f3e3d5ffd5b505050506040513d601f19601f8201168201806040525081019061020a919061091d565b101561024b576040517f08c379a0000000000000000000000000000000000000000000000000000000008152600401610242906109a2565b60405180910390fd5b60015f9054906101000a900473ffffffffffffffffffffffffffffffffffffffff1673ffffffffffffffffffffffffffffffffffffffff16639dc29fac33836040518363ffffffff1660e01b81526004016102a79291906109c0565b5f604051808303815f87803b1580156102be575f5ffd5b505af11580156102d0573d5f5f3e3d5ffd5b50505050803373ffffffffffffffffffffffffffffffffffffffff167f696de425f79f4a40bc6d2122ca50507f0efbeabbff86a84871b7196ab8ea8df760405160405180910390a350565b8060025f3373ffffffffffffffffffffffffffffffffffffffff1673ffffffffffffffffffffffffffffffffffffffff1681526020019081526020015f2054101561039b576040517f08c379a000000000000000000000000000000000000000000000000000000000815260040161039290610a31565b60405180910390fd5b8060025f3373ffffffffffffffffffffffffffffffffffffffff1673ffffffffffffffffffffffffffffffffffffffff1681526020019081526020015f205f8282546103e79190610a7c565b9250508190555060015f9054906101000a900473ffffffffffffffffffffffffffffffffffffffff1673ffffffffffffffffffffffffffffffffffffffff166340c10f1933836040518363ffffffff1660e01b815260040161044a9291906109c0565b5f604051808303815f87803b158015610461575f5ffd5b505af1158015610473573d5f5f3e3d5ffd5b5050505050565b6104826105d1565b8060025f8473ffffffffffffffffffffffffffffffffffffffff1673ffffffffffffffffffffffffffffffffffffffff1681526020019081526020015f205f8282546104ce9190610aaf565b925050819055505050565b6104e16105d1565b6104ea5f610658565b565b5f5f5f9054906101000a900473ffffffffffffffffffffffffffffffffffffffff16905090565b60015f9054906101000a900473ffffffffffffffffffffffffffffffffffffffff1681565b6002602052805f5260405f205f915090505481565b6105556105d1565b5f73ffffffffffffffffffffffffffffffffffffffff168173ffffffffffffffffffffffffffffffffffffffff16036105c5575f6040517f1e4fbdf70000000000000000000000000000000000000000000000000000000081526004016105bc9190610829565b60405180910390fd5b6105ce81610658565b50565b6105d9610719565b73ffffffffffffffffffffffffffffffffffffffff166105f76104ec565b73ffffffffffffffffffffffffffffffffffffffff16146106565761061a610719565b6040517f118cdaa700000000000000000000000000000000000000000000000000000000815260040161064d9190610829565b60405180910390fd5b565b5f5f5f9054906101000a900473ffffffffffffffffffffffffffffffffffffffff169050815f5f6101000a81548173ffffffffffffffffffffffffffffffffffffffff021916908373ffffffffffffffffffffffffffffffffffffffff1602179055508173ffffffffffffffffffffffffffffffffffffffff168173ffffffffffffffffffffffffffffffffffffffff167f8be0079c531659141344cd1fd0a4f28419497f9722a3daafe3b4186f6b6457e060405160405180910390a35050565b5f33905090565b5f5ffd5b5f819050919050565b61073681610724565b8114610740575f5ffd5b50565b5f813590506107518161072d565b92915050565b5f6020828403121561076c5761076b610720565b5b5f61077984828501610743565b91505092915050565b5f73ffffffffffffffffffffffffffffffffffffffff82169050919050565b5f6107ab82610782565b9050919050565b6107bb816107a1565b81146107c5575f5ffd5b50565b5f813590506107d6816107b2565b92915050565b5f5f604083850312156107f2576107f1610720565b5b5f6107ff858286016107c8565b925050602061081085828601610743565b9150509250929050565b610823816107a1565b82525050565b5f60208201905061083c5f83018461081a565b92915050565b5f819050919050565b5f61086561086061085b84610782565b610842565b610782565b9050919050565b5f6108768261084b565b9050919050565b5f6108878261086c565b9050919050565b6108978161087d565b82525050565b5f6020820190506108b05f83018461088e565b92915050565b5f602082840312156108cb576108ca610720565b5b5f6108d8848285016107c8565b91505092915050565b6108ea81610724565b82525050565b5f6020820190506109035f8301846108e1565b92915050565b5f815190506109178161072d565b92915050565b5f6020828403121561093257610931610720565b5b5f61093f84828501610909565b91505092915050565b5f82825260208201905092915050565b7f506c65617365207375626d697420746f6b656e730000000000000000000000005f82015250565b5f61098c601483610948565b915061099782610958565b602082019050919050565b5f6020820190508181035f8301526109b981610980565b9050919050565b5f6040820190506109d35f83018561081a565b6109e060208301846108e1565b9392505050565b7f496e73756666696369656e742062616c616e63650000000000000000000000005f82015250565b5f610a1b601483610948565b9150610a26826109e7565b602082019050919050565b5f6020820190508181035f830152610a4881610a0f565b9050919050565b7f4e487b71000000000000000000000000000000000000000000000000000000005f52601160045260245ffd5b5f610a8682610724565b9150610a9183610724565b9250828203905081811115610aa957610aa8610a4f565b5b92915050565b5f610ab982610724565b9150610ac483610724565b9250828201905080821115610adc57610adb610a4f565b5b9291505056fea26469706673582212204ddc110144c987da6ff6eafdb9e43fa51e04fde65db912dc225b339592e009be64736f6c634300081c0033","linkReferences":{}},"methodIdentifiers":{"WDonut()":"941d5669","balance(address)":"e3d670d7","burned(uint256)":"23250cae","lockOnOppositeChain(address,uint256)":"5f95ae68","owner()":"8da5cb5b","renounceOwnership()":"715018a6","transferOwnership(address)":"f2fde38b","withdraw(uint256)":"2e1a7d4d"},"id":22}