{"abi":[{"type":"constructor","inputs":[{"name":"_donut","type":"address","internalType":"address"}],"stateMutability":"nonpayable"},{"type":"function","name":"balances","inputs":[{"name":"","type":"address","internalType":"address"}],"outputs":[{"name":"","type":"uint256","internalType":"uint256"}],"stateMutability":"view"},{"type":"function","name":"burnedOnOtherSide","inputs":[{"name":"_user","type":"address","internalType":"address"},{"name":"_amount","type":"uint256","internalType":"uint256"}],"outputs":[],"stateMutability":"nonpayable"},{"type":"function","name":"donut","inputs":[],"outputs":[{"name":"","type":"address","internalType":"contract IERC20"}],"stateMutability":"view"},{"type":"function","name":"lock","inputs":[{"name":"_tokenAddress","type":"address","internalType":"address"},{"name":"_amount","type":"uint256","internalType":"uint256"}],"outputs":[],"stateMutability":"nonpayable"},{"type":"function","name":"owner","inputs":[],"outputs":[{"name":"","type":"address","internalType":"address"}],"stateMutability":"view"},{"type":"function","name":"renounceOwnership","inputs":[],"outputs":[],"stateMutability":"nonpayable"},{"type":"function","name":"transferOwnership","inputs":[{"name":"newOwner","type":"address","internalType":"address"}],"outputs":[],"stateMutability":"nonpayable"},{"type":"function","name":"unlock","inputs":[{"name":"_tokenAddress","type":"address","internalType":"address"},{"name":"_amount","type":"uint256","internalType":"uint256"}],"outputs":[],"stateMutability":"nonpayable"},{"type":"event","name":"Lock","inputs":[{"name":"_from","type":"address","indexed":true,"internalType":"address"},{"name":"_amount","type":"uint256","indexed":true,"internalType":"uint256"}],"anonymous":false},{"type":"event","name":"OwnershipTransferred","inputs":[{"name":"previousOwner","type":"address","indexed":true,"internalType":"address"},{"name":"newOwner","type":"address","indexed":true,"internalType":"address"}],"anonymous":false},{"type":"error","name":"OwnableInvalidOwner","inputs":[{"name":"owner","type":"address","internalType":"address"}]},{"type":"error","name":"OwnableUnauthorizedAccount","inputs":[{"name":"account","type":"address","internalType":"address"}]}],"bytecode":{"object":"0x608060405234801561000f575f5ffd5b50604051610fce380380610fce83398181016040528101906100319190610217565b335f73ffffffffffffffffffffffffffffffffffffffff168173ffffffffffffffffffffffffffffffffffffffff16036100a2575f6040517f1e4fbdf70000000000000000000000000000000000000000000000000000000081526004016100999190610251565b60405180910390fd5b6100b1816100f860201b60201c565b508060015f6101000a81548173ffffffffffffffffffffffffffffffffffffffff021916908373ffffffffffffffffffffffffffffffffffffffff1602179055505061026a565b5f5f5f9054906101000a900473ffffffffffffffffffffffffffffffffffffffff169050815f5f6101000a81548173ffffffffffffffffffffffffffffffffffffffff021916908373ffffffffffffffffffffffffffffffffffffffff1602179055508173ffffffffffffffffffffffffffffffffffffffff168173ffffffffffffffffffffffffffffffffffffffff167f8be0079c531659141344cd1fd0a4f28419497f9722a3daafe3b4186f6b6457e060405160405180910390a35050565b5f5ffd5b5f73ffffffffffffffffffffffffffffffffffffffff82169050919050565b5f6101e6826101bd565b9050919050565b6101f6816101dc565b8114610200575f5ffd5b50565b5f81519050610211816101ed565b92915050565b5f6020828403121561022c5761022b6101b9565b5b5f61023984828501610203565b91505092915050565b61024b816101dc565b82525050565b5f6020820190506102645f830184610242565b92915050565b610d57806102775f395ff3fe608060405234801561000f575f5ffd5b5060043610610086575f3560e01c80637eee288d116100595780637eee288d146100fc5780638da5cb5b14610118578063c4bebec314610136578063f2fde38b1461015457610086565b806326148d4f1461008a57806327e235e3146100a6578063282d3fdf146100d6578063715018a6146100f2575b5f5ffd5b6100a4600480360381019061009f919061088f565b610170565b005b6100c060048036038101906100bb91906108cd565b6101cf565b6040516100cd9190610907565b60405180910390f35b6100f060048036038101906100eb919061088f565b6101e4565b005b6100fa610437565b005b6101166004803603810190610111919061088f565b61044a565b005b6101206105df565b60405161012d919061092f565b60405180910390f35b61013e610606565b60405161014b91906109a3565b60405180910390f35b61016e600480360381019061016991906108cd565b61062b565b005b6101786106af565b8060025f8473ffffffffffffffffffffffffffffffffffffffff1673ffffffffffffffffffffffffffffffffffffffff1681526020019081526020015f205f8282546101c491906109e9565b925050819055505050565b6002602052805f5260405f205f915090505481565b5f8111610226576040517f08c379a000000000000000000000000000000000000000000000000000000000815260040161021d90610a76565b60405180910390fd5b60015f9054906101000a900473ffffffffffffffffffffffffffffffffffffffff1673ffffffffffffffffffffffffffffffffffffffff168273ffffffffffffffffffffffffffffffffffffffff16146102b5576040517f08c379a00000000000000000000000000000000000000000000000000000000081526004016102ac90610ade565b60405180910390fd5b808273ffffffffffffffffffffffffffffffffffffffff1663dd62ed3e33306040518363ffffffff1660e01b81526004016102f1929190610afc565b602060405180830381865afa15801561030c573d5f5f3e3d5ffd5b505050506040513d601f19601f820116820180604052508101906103309190610b37565b1015610371576040517f08c379a000000000000000000000000000000000000000000000000000000000815260040161036890610bac565b60405180910390fd5b8173ffffffffffffffffffffffffffffffffffffffff166323b872dd3330846040518463ffffffff1660e01b81526004016103ae93929190610bca565b6020604051808303815f875af11580156103ca573d5f5f3e3d5ffd5b505050506040513d601f19601f820116820180604052508101906103ee9190610c34565b50803373ffffffffffffffffffffffffffffffffffffffff167f625fed9875dada8643f2418b838ae0bc78d9a148a18eee4ee1979ff0f3f5d42760405160405180910390a35050565b61043f6106af565b6104485f610736565b565b5f811161048c576040517f08c379a000000000000000000000000000000000000000000000000000000000815260040161048390610a76565b60405180910390fd5b60025f3373ffffffffffffffffffffffffffffffffffffffff1673ffffffffffffffffffffffffffffffffffffffff1681526020019081526020015f205481111561050c576040517f08c379a000000000000000000000000000000000000000000000000000000000815260040161050390610ca9565b60405180910390fd5b8060025f3373ffffffffffffffffffffffffffffffffffffffff1673ffffffffffffffffffffffffffffffffffffffff1681526020019081526020015f205f8282546105589190610cc7565b925050819055508173ffffffffffffffffffffffffffffffffffffffff1663a9059cbb33836040518363ffffffff1660e01b815260040161059a929190610cfa565b6020604051808303815f875af11580156105b6573d5f5f3e3d5ffd5b505050506040513d601f19601f820116820180604052508101906105da9190610c34565b505050565b5f5f5f9054906101000a900473ffffffffffffffffffffffffffffffffffffffff16905090565b60015f9054906101000a900473ffffffffffffffffffffffffffffffffffffffff1681565b6106336106af565b5f73ffffffffffffffffffffffffffffffffffffffff168173ffffffffffffffffffffffffffffffffffffffff16036106a3575f6040517f1e4fbdf700000000000000000000000000000000000000000000000000000000815260040161069a919061092f565b60405180910390fd5b6106ac81610736565b50565b6106b76107f7565b73ffffffffffffffffffffffffffffffffffffffff166106d56105df565b73ffffffffffffffffffffffffffffffffffffffff1614610734576106f86107f7565b6040517f118cdaa700000000000000000000000000000000000000000000000000000000815260040161072b919061092f565b60405180910390fd5b565b5f5f5f9054906101000a900473ffffffffffffffffffffffffffffffffffffffff169050815f5f6101000a81548173ffffffffffffffffffffffffffffffffffffffff021916908373ffffffffffffffffffffffffffffffffffffffff1602179055508173ffffffffffffffffffffffffffffffffffffffff168173ffffffffffffffffffffffffffffffffffffffff167f8be0079c531659141344cd1fd0a4f28419497f9722a3daafe3b4186f6b6457e060405160405180910390a35050565b5f33905090565b5f5ffd5b5f73ffffffffffffffffffffffffffffffffffffffff82169050919050565b5f61082b82610802565b9050919050565b61083b81610821565b8114610845575f5ffd5b50565b5f8135905061085681610832565b92915050565b5f819050919050565b61086e8161085c565b8114610878575f5ffd5b50565b5f8135905061088981610865565b92915050565b5f5f604083850312156108a5576108a46107fe565b5b5f6108b285828601610848565b92505060206108c38582860161087b565b9150509250929050565b5f602082840312156108e2576108e16107fe565b5b5f6108ef84828501610848565b91505092915050565b6109018161085c565b82525050565b5f60208201905061091a5f8301846108f8565b92915050565b61092981610821565b82525050565b5f6020820190506109425f830184610920565b92915050565b5f819050919050565b5f61096b61096661096184610802565b610948565b610802565b9050919050565b5f61097c82610951565b9050919050565b5f61098d82610972565b9050919050565b61099d81610983565b82525050565b5f6020820190506109b65f830184610994565b92915050565b7f4e487b71000000000000000000000000000000000000000000000000000000005f52601160045260245ffd5b5f6109f38261085c565b91506109fe8361085c565b9250828201905080821115610a1657610a156109bc565b5b92915050565b5f82825260208201905092915050565b7f416d6f756e742063616e6e6f74206265207a65726f00000000000000000000005f82015250565b5f610a60601583610a1c565b9150610a6b82610a2c565b602082019050919050565b5f6020820190508181035f830152610a8d81610a54565b9050919050565b7f496e76616c696420746f6b656e206164647265737300000000000000000000005f82015250565b5f610ac8601583610a1c565b9150610ad382610a94565b602082019050919050565b5f6020820190508181035f830152610af581610abc565b9050919050565b5f604082019050610b0f5f830185610920565b610b1c6020830184610920565b9392505050565b5f81519050610b3181610865565b92915050565b5f60208284031215610b4c57610b4b6107fe565b5b5f610b5984828501610b23565b91505092915050565b7f506c6561736520617070726f766520746f6b656e7320666972737400000000005f82015250565b5f610b96601b83610a1c565b9150610ba182610b62565b602082019050919050565b5f6020820190508181035f830152610bc381610b8a565b9050919050565b5f606082019050610bdd5f830186610920565b610bea6020830185610920565b610bf760408301846108f8565b949350505050565b5f8115159050919050565b610c1381610bff565b8114610c1d575f5ffd5b50565b5f81519050610c2e81610c0a565b92915050565b5f60208284031215610c4957610c486107fe565b5b5f610c5684828501610c20565b91505092915050565b7f496e73756666696369656e742062616c616e63650000000000000000000000005f82015250565b5f610c93601483610a1c565b9150610c9e82610c5f565b602082019050919050565b5f6020820190508181035f830152610cc081610c87565b9050919050565b5f610cd18261085c565b9150610cdc8361085c565b9250828203905081811115610cf457610cf36109bc565b5b92915050565b5f604082019050610d0d5f830185610920565b610d1a60208301846108f8565b939250505056fea2646970667358221220fdcc3c7855025842a69a75deb1a469995a9949efcc97447b844fdf0127da04ad64736f6c634300081c0033","linkReferences":{}},"methodIdentifiers":{"balances(address)":"27e235e3","burnedOnOtherSide(address,uint256)":"26148d4f","donut()":"c4bebec3","lock(address,uint256)":"282d3fdf","owner()":"8da5cb5b","renounceOwnership()":"715018a6","transferOwnership(address)":"f2fde38b","unlock(address,uint256)":"7eee288d"},"id":23}